{
  "_format": "hh-sol-artifact-1",
  "contractName": "Main",
  "sourceName": "contracts/main.sol",
  "abi": [
    {
      "inputs": [],
      "stateMutability": "nonpayable",
      "type": "constructor"
    },
    {
      "inputs": [
        {
          "internalType": "bytes32",
          "name": "symbol",
          "type": "bytes32"
        },
        {
          "internalType": "address",
          "name": "_address",
          "type": "address"
        }
      ],
      "name": "addWhitelist",
      "outputs": [],
      "stateMutability": "nonpayable",
      "type": "function"
    },
    {
      "inputs": [],
      "name": "cut",
      "outputs": [
        {
          "internalType": "uint256",
          "name": "",
          "type": "uint256"
        }
      ],
      "stateMutability": "view",
      "type": "function"
    },
    {
      "inputs": [],
      "name": "owner",
      "outputs": [
        {
          "internalType": "address",
          "name": "",
          "type": "address"
        }
      ],
      "stateMutability": "view",
      "type": "function"
    },
    {
      "inputs": [],
      "name": "qrcut",
      "outputs": [
        {
          "internalType": "uint256",
          "name": "",
          "type": "uint256"
        }
      ],
      "stateMutability": "view",
      "type": "function"
    },
    {
      "inputs": [
        {
          "internalType": "bytes32",
          "name": "symbol",
          "type": "bytes32"
        }
      ],
      "name": "removeWhitelist",
      "outputs": [],
      "stateMutability": "nonpayable",
      "type": "function"
    },
    {
      "inputs": [
        {
          "internalType": "uint256",
          "name": "ncut",
          "type": "uint256"
        }
      ],
      "name": "updateCut",
      "outputs": [],
      "stateMutability": "nonpayable",
      "type": "function"
    },
    {
      "inputs": [
        {
          "internalType": "uint256",
          "name": "ncut",
          "type": "uint256"
        }
      ],
      "name": "updateQrCut",
      "outputs": [],
      "stateMutability": "nonpayable",
      "type": "function"
    },
    {
      "inputs": [
        {
          "internalType": "uint256",
          "name": "",
          "type": "uint256"
        }
      ],
      "name": "whiteSymbol",
      "outputs": [
        {
          "internalType": "bytes32",
          "name": "",
          "type": "bytes32"
        }
      ],
      "stateMutability": "view",
      "type": "function"
    },
    {
      "inputs": [],
      "name": "whiteSymbols",
      "outputs": [
        {
          "internalType": "bytes32[]",
          "name": "",
          "type": "bytes32[]"
        }
      ],
      "stateMutability": "view",
      "type": "function"
    },
    {
      "inputs": [
        {
          "internalType": "bytes32",
          "name": "",
          "type": "bytes32"
        }
      ],
      "name": "whitelist",
      "outputs": [
        {
          "internalType": "address",
          "name": "",
          "type": "address"
        }
      ],
      "stateMutability": "view",
      "type": "function"
    }
  ],
  "bytecode": "0x608060405260018055600160025534801561001957600080fd5b50600080546001600160a01b031916331790556104be8061003b6000396000f3fe608060405234801561001057600080fd5b506004361061009e5760003560e01c8063afb40c8e11610066578063afb40c8e14610125578063ce558cd31461014e578063e08085cb14610161578063e227c95014610174578063e6fd604c1461018957600080fd5b8063360ba55b146100a35780636287b1bb146100b857806378793dda146100cb5780638da5cb5b146100e757806394abb9de14610112575b600080fd5b6100b66100b13660046103c2565b610192565b005b6100b66100c63660046103c2565b61020a565b6100d460025481565b6040519081526020015b60405180910390f35b6000546100fa906001600160a01b031681565b6040516001600160a01b0390911681526020016100de565b6100b66101203660046103c2565b610252565b6100fa6101333660046103c2565b6003602052600090815260409020546001600160a01b031681565b6100b661015c3660046103db565b6102c1565b6100d461016f3660046103c2565b610349565b61017c61036a565b6040516100de9190610417565b6100d460015481565b6000546001600160a01b031633146101c55760405162461bcd60e51b81526004016101bc9061045b565b60405180910390fd5b600081116102055760405162461bcd60e51b815260206004820152600d60248201526c10dd5d081d1bdbc81cdb585b1b609a1b60448201526064016101bc565b600155565b6000546001600160a01b031633146102345760405162461bcd60e51b81526004016101bc9061045b565b600090815260036020526040902080546001600160a01b0319169055565b6000546001600160a01b0316331461027c5760405162461bcd60e51b81526004016101bc9061045b565b600081116102bc5760405162461bcd60e51b815260206004820152600d60248201526c10dd5d081d1bdbc81cdb585b1b609a1b60448201526064016101bc565b600255565b6000546001600160a01b031633146102eb5760405162461bcd60e51b81526004016101bc9061045b565b600082815260036020526040812080546001600160a01b0319166001600160a01b0393909316929092179091556004805460018101825591527f8a35acfbc15ff81a39ae7d344fd709f28e8600b4aa8c65c6b64bfe7fe36bd19b0155565b6004818154811061035957600080fd5b600091825260209091200154905081565b606060048054806020026020016040519081016040528092919081815260200182805480156103b857602002820191906000526020600020905b8154815260200190600101908083116103a4575b5050505050905090565b6000602082840312156103d457600080fd5b5035919050565b600080604083850312156103ee57600080fd5b8235915060208301356001600160a01b038116811461040c57600080fd5b809150509250929050565b6020808252825182820181905260009190848201906040850190845b8181101561044f57835183529284019291840191600101610433565b50909695505050505050565b60208082526013908201527213db9b1e481bdddb995c9cc8185b1b1bddd959606a1b60408201526060019056fea264697066735822122057930f0baf1f15f35e94f4fbdf8d39b007e8063f7cb0560813b95568d52366d864736f6c63430008070033",
  "linkReferences": {},
  "deployedLinkReferences": {}
}