{
  "_format": "hh-sol-artifact-1",
  "contractName": "Payment",
  "sourceName": "contracts/payment.sol",
  "abi": [
    {
      "inputs": [],
      "stateMutability": "nonpayable",
      "type": "constructor"
    },
    {
      "anonymous": false,
      "inputs": [
        {
          "indexed": true,
          "internalType": "address",
          "name": "_to",
          "type": "address"
        },
        {
          "indexed": true,
          "internalType": "address",
          "name": "_from",
          "type": "address"
        },
        {
          "indexed": true,
          "internalType": "uint256",
          "name": "_amount",
          "type": "uint256"
        }
      ],
      "name": "TransferReceived",
      "type": "event"
    },
    {
      "anonymous": false,
      "inputs": [
        {
          "indexed": true,
          "internalType": "address",
          "name": "_from",
          "type": "address"
        },
        {
          "indexed": true,
          "internalType": "address",
          "name": "_desAddr",
          "type": "address"
        },
        {
          "indexed": true,
          "internalType": "uint256",
          "name": "_amount",
          "type": "uint256"
        }
      ],
      "name": "TransferSent",
      "type": "event"
    },
    {
      "inputs": [],
      "name": "contractAddress",
      "outputs": [
        {
          "internalType": "address",
          "name": "",
          "type": "address"
        }
      ],
      "stateMutability": "view",
      "type": "function"
    },
    {
      "inputs": [],
      "name": "contractBalance",
      "outputs": [
        {
          "internalType": "uint256",
          "name": "",
          "type": "uint256"
        }
      ],
      "stateMutability": "view",
      "type": "function"
    },
    {
      "inputs": [],
      "name": "owner",
      "outputs": [
        {
          "internalType": "address",
          "name": "",
          "type": "address"
        }
      ],
      "stateMutability": "view",
      "type": "function"
    },
    {
      "inputs": [
        {
          "internalType": "address",
          "name": "to",
          "type": "address"
        }
      ],
      "name": "sendToken",
      "outputs": [],
      "stateMutability": "payable",
      "type": "function"
    },
    {
      "inputs": [
        {
          "internalType": "address payable",
          "name": "to",
          "type": "address"
        }
      ],
      "name": "transferToken",
      "outputs": [],
      "stateMutability": "nonpayable",
      "type": "function"
    },
    {
      "inputs": [
        {
          "internalType": "address",
          "name": "",
          "type": "address"
        }
      ],
      "name": "wallet",
      "outputs": [
        {
          "internalType": "uint256",
          "name": "",
          "type": "uint256"
        }
      ],
      "stateMutability": "view",
      "type": "function"
    },
    {
      "inputs": [],
      "name": "withdraw",
      "outputs": [],
      "stateMutability": "nonpayable",
      "type": "function"
    },
    {
      "stateMutability": "payable",
      "type": "receive"
    }
  ],
  "bytecode": "0x6080604052600280546001600160a01b0319163017905534801561002257600080fd5b50600080546001600160a01b031916339081178255815260036020526040812055610520806100526000396000f3fe6080604052600436106100745760003560e01c8063a56cc4391161004e578063a56cc43914610149578063c575c23814610176578063deebeac914610189578063f6b4dfb4146101a957600080fd5b80633ccfd60b146100d15780638b7afe2e146100e85780638da5cb5b1461011157600080fd5b366100cc57600080546001600160a01b03908116825260036020526040808320349081905560025491519093339392909216917f433f97eb1c2cce62f863a3099f94448d8a882075addd4d8df9bbada004eb788091a4005b600080fd5b3480156100dd57600080fd5b506100e66101c9565b005b3480156100f457600080fd5b506100fe60015481565b6040519081526020015b60405180910390f35b34801561011d57600080fd5b50600054610131906001600160a01b031681565b6040516001600160a01b039091168152602001610108565b34801561015557600080fd5b506100fe61016436600461042b565b60036020526000908152604090205481565b6100e661018436600461042b565b610264565b34801561019557600080fd5b506100e66101a436600461042b565b6102b5565b3480156101b557600080fd5b50600254610131906001600160a01b031681565b6000546001600160a01b0316331461021d5760405162461bcd60e51b81526020600482015260126024820152714f6e6c79206f776e65727320706c6561736560701b60448201526064015b60405180910390fd5b600080546001600160a01b031680825260036020526040808320549051919281156108fc029290818181858888f19350505050158015610261573d6000803e3d6000fd5b50565b6001600160a01b03811660008181526003602052604080822034908190554760015590519092339290917f433f97eb1c2cce62f863a3099f94448d8a882075addd4d8df9bbada004eb78809190a450565b6001600160a01b03811660009081526003602052604090205461031a5760405162461bcd60e51b815260206004820152601760248201527f62616c616e636520697320696e73756666696369656e740000000000000000006044820152606401610214565b6001600160a01b038116600090815260036020526040812054606490610341906005610489565b61034b9190610467565b6001600160a01b038316600090815260036020526040812054919250906103739083906104a8565b6001600160a01b03841660008181526003602052604080822082905551929350909183156108fc0291849190818181858888f193505050501580156103bc573d6000803e3d6000fd5b5047600155600080546001600160a01b0316815260036020526040812080548492906103e990849061044f565b909155505060405181906001600160a01b0385169033907ffda3a3e0e1479b43cb1c701f7576187f4c4ad80768d627387e00184302f7d88e90600090a4505050565b60006020828403121561043d57600080fd5b8135610448816104d5565b9392505050565b60008219821115610462576104626104bf565b500190565b60008261048457634e487b7160e01b600052601260045260246000fd5b500490565b60008160001904831182151516156104a3576104a36104bf565b500290565b6000828210156104ba576104ba6104bf565b500390565b634e487b7160e01b600052601160045260246000fd5b6001600160a01b038116811461026157600080fdfea2646970667358221220cf916c7b269e70903cc84d2c9179f2c180c9c6dc803dd2a39c81c465311b6b0a64736f6c63430008070033",
  "linkReferences": {},
  "deployedLinkReferences": {}
}