{
  "_format": "hh-sol-artifact-1",
  "contractName": "Payment",
  "sourceName": "contracts/payment.sol",
  "abi": [
    {
      "inputs": [],
      "stateMutability": "nonpayable",
      "type": "constructor"
    },
    {
      "anonymous": false,
      "inputs": [
        {
          "indexed": true,
          "internalType": "address",
          "name": "_to",
          "type": "address"
        },
        {
          "indexed": true,
          "internalType": "address",
          "name": "_from",
          "type": "address"
        },
        {
          "indexed": true,
          "internalType": "uint256",
          "name": "_amount",
          "type": "uint256"
        }
      ],
      "name": "TransferReceived",
      "type": "event"
    },
    {
      "anonymous": false,
      "inputs": [
        {
          "indexed": true,
          "internalType": "address",
          "name": "_from",
          "type": "address"
        },
        {
          "indexed": true,
          "internalType": "address",
          "name": "_desAddr",
          "type": "address"
        },
        {
          "indexed": true,
          "internalType": "uint256",
          "name": "_amount",
          "type": "uint256"
        }
      ],
      "name": "TransferSent",
      "type": "event"
    },
    {
      "inputs": [],
      "name": "contractAddress",
      "outputs": [
        {
          "internalType": "address",
          "name": "",
          "type": "address"
        }
      ],
      "stateMutability": "view",
      "type": "function"
    },
    {
      "inputs": [],
      "name": "contractBalance",
      "outputs": [
        {
          "internalType": "uint256",
          "name": "",
          "type": "uint256"
        }
      ],
      "stateMutability": "view",
      "type": "function"
    },
    {
      "inputs": [],
      "name": "owner",
      "outputs": [
        {
          "internalType": "address",
          "name": "",
          "type": "address"
        }
      ],
      "stateMutability": "view",
      "type": "function"
    },
    {
      "inputs": [],
      "name": "percent",
      "outputs": [
        {
          "internalType": "uint256",
          "name": "",
          "type": "uint256"
        }
      ],
      "stateMutability": "view",
      "type": "function"
    },
    {
      "inputs": [
        {
          "internalType": "address payable",
          "name": "to",
          "type": "address"
        }
      ],
      "name": "transferNative",
      "outputs": [],
      "stateMutability": "payable",
      "type": "function"
    },
    {
      "inputs": [
        {
          "internalType": "address payable",
          "name": "to",
          "type": "address"
        },
        {
          "internalType": "uint256",
          "name": "value",
          "type": "uint256"
        },
        {
          "internalType": "bytes32",
          "name": "symbol",
          "type": "bytes32"
        }
      ],
      "name": "transferToken",
      "outputs": [],
      "stateMutability": "nonpayable",
      "type": "function"
    },
    {
      "inputs": [],
      "name": "wallet",
      "outputs": [
        {
          "internalType": "uint256",
          "name": "",
          "type": "uint256"
        }
      ],
      "stateMutability": "view",
      "type": "function"
    },
    {
      "stateMutability": "payable",
      "type": "receive"
    }
  ],
  "bytecode": "0x60806040819052600080546001600160a01b0319167361001c7998ea1fe24ebfd6497216fe6abd210022908117909155638da5cb5b60e01b825290638da5cb5b9060849060209060048186803b15801561005857600080fd5b505afa15801561006c573d6000803e3d6000fd5b505050506040513d601f19601f820116820180604052508101906100909190610144565b600180546001600160a01b039283166001600160a01b0319918216179091556002805490911630179055600054604080516339bf581360e21b81529051919092169163e6fd604c916004808301926020929190829003018186803b1580156100f757600080fd5b505afa15801561010b573d6000803e3d6000fd5b505050506040513d601f19601f8201168201806040525081019061012f9190610174565b60055534801561013e57600080fd5b5061018d565b60006020828403121561015657600080fd5b81516001600160a01b038116811461016d57600080fd5b9392505050565b60006020828403121561018657600080fd5b5051919050565b6107f88061019c6000396000f3fe6080604052600436106100745760003560e01c80638da5cb5b1161004e5780638da5cb5b146101115780639f783dae14610149578063a526c5f01461016b578063f6b4dfb41461017e57600080fd5b8063521eb273146100bc57806370ba1113146100e55780638b7afe2e146100fb57600080fd5b366100b757600254604051349133916001600160a01b03909116907f433f97eb1c2cce62f863a3099f94448d8a882075addd4d8df9bbada004eb788090600090a4005b600080fd5b3480156100c857600080fd5b506100d260045481565b6040519081526020015b60405180910390f35b3480156100f157600080fd5b506100d260055481565b34801561010757600080fd5b506100d260035481565b34801561011d57600080fd5b50600154610131906001600160a01b031681565b6040516001600160a01b0390911681526020016100dc565b34801561015557600080fd5b506101696101643660046106cc565b61019e565b005b6101696101793660046106af565b61055b565b34801561018a57600080fd5b50600254610131906001600160a01b031681565b6001546001600160a01b031633146101ec5760405162461bcd60e51b815260206004820152600c60248201526b1d5b985d5d1a1bdc9a5e995960a21b60448201526064015b60405180910390fd5b600080546040516357da064760e11b8152600481018490526001600160a01b039091169063afb40c8e9060240160206040518083038186803b15801561023157600080fd5b505afa158015610245573d6000803e3d6000fd5b505050506040513d601f19601f82011682018060405250810190610269919061068b565b6002546040516370a0823160e01b81526001600160a01b0391821660048201529116906370a082319060240160206040518083038186803b1580156102ad57600080fd5b505afa1580156102c1573d6000803e3d6000fd5b505050506040513d601f19601f820116820180604052508101906102e59190610723565b9050600081116103255760405162461bcd60e51b815260206004820152600b60248201526a42616c616e6365206c6f7760a81b60448201526064016101e3565b6000606460055485610337919061075e565b610341919061073c565b9050600061034f828661077d565b6000546040516357da064760e11b8152600481018790529192506001600160a01b03169063afb40c8e9060240160206040518083038186803b15801561039457600080fd5b505afa1580156103a8573d6000803e3d6000fd5b505050506040513d601f19601f820116820180604052508101906103cc919061068b565b60405163a9059cbb60e01b81526001600160a01b03888116600483015260248201849052919091169063a9059cbb90604401602060405180830381600087803b15801561041857600080fd5b505af115801561042c573d6000803e3d6000fd5b505050506040513d601f19601f820116820180604052508101906104509190610701565b506000546040516357da064760e11b8152600481018690526001600160a01b039091169063afb40c8e9060240160206040518083038186803b15801561049557600080fd5b505afa1580156104a9573d6000803e3d6000fd5b505050506040513d601f19601f820116820180604052508101906104cd919061068b565b60015460405163a9059cbb60e01b81526001600160a01b0391821660048201526024810185905291169063a9059cbb90604401602060405180830381600087803b15801561051a57600080fd5b505af115801561052e573d6000803e3d6000fd5b505050506040513d601f19601f820116820180604052508101906105529190610701565b50505050505050565b600034116105ab5760405162461bcd60e51b815260206004820152601760248201527f62616c616e636520697320696e73756666696369656e7400000000000000000060448201526064016101e3565b60006064600554346105bd919061075e565b6105c7919061073c565b905060006105d5823461077d565b6040519091506001600160a01b0384169082156108fc029083906000818181858888f1935050505015801561060e573d6000803e3d6000fd5b50476003556001546040516001600160a01b039091169083156108fc029084906000818181858888f1935050505015801561064d573d6000803e3d6000fd5b5060405181906001600160a01b0385169033907ffda3a3e0e1479b43cb1c701f7576187f4c4ad80768d627387e00184302f7d88e90600090a4505050565b60006020828403121561069d57600080fd5b81516106a8816107aa565b9392505050565b6000602082840312156106c157600080fd5b81356106a8816107aa565b6000806000606084860312156106e157600080fd5b83356106ec816107aa565b95602085013595506040909401359392505050565b60006020828403121561071357600080fd5b815180151581146106a857600080fd5b60006020828403121561073557600080fd5b5051919050565b60008261075957634e487b7160e01b600052601260045260246000fd5b500490565b600081600019048311821515161561077857610778610794565b500290565b60008282101561078f5761078f610794565b500390565b634e487b7160e01b600052601160045260246000fd5b6001600160a01b03811681146107bf57600080fd5b5056fea2646970667358221220175cd2e42aed37f194c07d70a5740b009ce16d539d5940bc1824696793beab3764736f6c63430008070033",
  "linkReferences": {},
  "deployedLinkReferences": {}
}