{
  "_format": "hh-sol-artifact-1",
  "contractName": "Payment",
  "sourceName": "contracts/payment.sol",
  "abi": [
    {
      "inputs": [],
      "stateMutability": "nonpayable",
      "type": "constructor"
    },
    {
      "anonymous": false,
      "inputs": [
        {
          "indexed": true,
          "internalType": "address",
          "name": "_to",
          "type": "address"
        },
        {
          "indexed": true,
          "internalType": "address",
          "name": "_from",
          "type": "address"
        },
        {
          "indexed": true,
          "internalType": "uint256",
          "name": "_amount",
          "type": "uint256"
        }
      ],
      "name": "TransferReceived",
      "type": "event"
    },
    {
      "anonymous": false,
      "inputs": [
        {
          "indexed": true,
          "internalType": "address",
          "name": "_from",
          "type": "address"
        },
        {
          "indexed": true,
          "internalType": "address",
          "name": "_desAddr",
          "type": "address"
        },
        {
          "indexed": true,
          "internalType": "uint256",
          "name": "_amount",
          "type": "uint256"
        }
      ],
      "name": "TransferSent",
      "type": "event"
    },
    {
      "inputs": [
        {
          "internalType": "uint256",
          "name": "_percent",
          "type": "uint256"
        }
      ],
      "name": "changeCut",
      "outputs": [],
      "stateMutability": "nonpayable",
      "type": "function"
    },
    {
      "inputs": [],
      "name": "contractAddress",
      "outputs": [
        {
          "internalType": "address",
          "name": "",
          "type": "address"
        }
      ],
      "stateMutability": "view",
      "type": "function"
    },
    {
      "inputs": [],
      "name": "contractBalance",
      "outputs": [
        {
          "internalType": "uint256",
          "name": "",
          "type": "uint256"
        }
      ],
      "stateMutability": "view",
      "type": "function"
    },
    {
      "inputs": [],
      "name": "owner",
      "outputs": [
        {
          "internalType": "address",
          "name": "",
          "type": "address"
        }
      ],
      "stateMutability": "view",
      "type": "function"
    },
    {
      "inputs": [],
      "name": "percent",
      "outputs": [
        {
          "internalType": "uint256",
          "name": "",
          "type": "uint256"
        }
      ],
      "stateMutability": "view",
      "type": "function"
    },
    {
      "inputs": [
        {
          "internalType": "address",
          "name": "to",
          "type": "address"
        }
      ],
      "name": "sendToken",
      "outputs": [],
      "stateMutability": "payable",
      "type": "function"
    },
    {
      "inputs": [
        {
          "internalType": "address payable",
          "name": "to",
          "type": "address"
        }
      ],
      "name": "transferToken",
      "outputs": [],
      "stateMutability": "payable",
      "type": "function"
    },
    {
      "inputs": [],
      "name": "wallet",
      "outputs": [
        {
          "internalType": "uint256",
          "name": "",
          "type": "uint256"
        }
      ],
      "stateMutability": "view",
      "type": "function"
    },
    {
      "inputs": [],
      "name": "withdraw",
      "outputs": [],
      "stateMutability": "nonpayable",
      "type": "function"
    },
    {
      "stateMutability": "payable",
      "type": "receive"
    }
  ],
  "bytecode": "0x6080604052600180546001600160a01b03191630179055600560045534801561002757600080fd5b50600080546001600160a01b031916331781556003556105588061004c6000396000f3fe60806040526004361061008a5760003560e01c80638da5cb5b116100595780638da5cb5b14610155578063ab892eba1461018d578063c575c238146101ad578063deebeac9146101c0578063f6b4dfb4146101d357600080fd5b80633ccfd60b146100e9578063521eb2731461010057806370ba1113146101295780638b7afe2e1461013f57600080fd5b366100e45734600360008282546100a19190610484565b9091555050600154604051349133916001600160a01b03909116907f433f97eb1c2cce62f863a3099f94448d8a882075addd4d8df9bbada004eb788090600090a4005b600080fd5b3480156100f557600080fd5b506100fe6101f3565b005b34801561010c57600080fd5b5061011660035481565b6040519081526020015b60405180910390f35b34801561013557600080fd5b5061011660045481565b34801561014b57600080fd5b5061011660025481565b34801561016157600080fd5b50600054610175906001600160a01b031681565b6040516001600160a01b039091168152602001610120565b34801561019957600080fd5b506100fe6101a836600461046b565b61028e565b6100fe6101bb366004610447565b6102e2565b6100fe6101ce366004610447565b610338565b3480156101df57600080fd5b50600154610175906001600160a01b031681565b6000546001600160a01b031633146102475760405162461bcd60e51b81526020600482015260126024820152714f6e6c79206f776e65727320706c6561736560701b60448201526064015b60405180910390fd5b600080546003546040516001600160a01b039092169281156108fc029290818181858888f19350505050158015610282573d6000803e3d6000fd5b50600060035547600255565b6000546001600160a01b031633146102dd5760405162461bcd60e51b81526020600482015260126024820152714f6e6c79206f776e65727320706c6561736560701b604482015260640161023e565b600455565b34600360008282546102f49190610484565b909155505047600255604051349033906001600160a01b038416907f433f97eb1c2cce62f863a3099f94448d8a882075addd4d8df9bbada004eb788090600090a450565b600034116103885760405162461bcd60e51b815260206004820152601760248201527f62616c616e636520697320696e73756666696369656e74000000000000000000604482015260640161023e565b600060646004543461039a91906104be565b6103a4919061049c565b905060006103b282346104dd565b6040519091506001600160a01b0384169082156108fc029083906000818181858888f193505050501580156103eb573d6000803e3d6000fd5b504760028190555081600360008282546104059190610484565b909155505060405181906001600160a01b0385169033907ffda3a3e0e1479b43cb1c701f7576187f4c4ad80768d627387e00184302f7d88e90600090a4505050565b60006020828403121561045957600080fd5b81356104648161050a565b9392505050565b60006020828403121561047d57600080fd5b5035919050565b60008219821115610497576104976104f4565b500190565b6000826104b957634e487b7160e01b600052601260045260246000fd5b500490565b60008160001904831182151516156104d8576104d86104f4565b500290565b6000828210156104ef576104ef6104f4565b500390565b634e487b7160e01b600052601160045260246000fd5b6001600160a01b038116811461051f57600080fd5b5056fea2646970667358221220d31cccec30fb0afa4b8313db77ed32768a0dcac27b221142f1a041b6a29a3ae064736f6c63430008070033",
  "linkReferences": {},
  "deployedLinkReferences": {}
}