{
  "_format": "hh-sol-artifact-1",
  "contractName": "Payment",
  "sourceName": "contracts/payment.sol",
  "abi": [
    {
      "inputs": [],
      "stateMutability": "nonpayable",
      "type": "constructor"
    },
    {
      "anonymous": false,
      "inputs": [
        {
          "indexed": true,
          "internalType": "address",
          "name": "_to",
          "type": "address"
        },
        {
          "indexed": true,
          "internalType": "address",
          "name": "_from",
          "type": "address"
        },
        {
          "indexed": true,
          "internalType": "uint256",
          "name": "_amount",
          "type": "uint256"
        }
      ],
      "name": "TransferReceived",
      "type": "event"
    },
    {
      "anonymous": false,
      "inputs": [
        {
          "indexed": true,
          "internalType": "address",
          "name": "_from",
          "type": "address"
        },
        {
          "indexed": true,
          "internalType": "address",
          "name": "_desAddr",
          "type": "address"
        },
        {
          "indexed": true,
          "internalType": "uint256",
          "name": "_amount",
          "type": "uint256"
        }
      ],
      "name": "TransferSent",
      "type": "event"
    },
    {
      "inputs": [],
      "name": "balance",
      "outputs": [
        {
          "internalType": "uint256",
          "name": "",
          "type": "uint256"
        }
      ],
      "stateMutability": "view",
      "type": "function"
    },
    {
      "inputs": [],
      "name": "contractAddress",
      "outputs": [
        {
          "internalType": "address",
          "name": "",
          "type": "address"
        }
      ],
      "stateMutability": "view",
      "type": "function"
    },
    {
      "inputs": [],
      "name": "contractBalance",
      "outputs": [
        {
          "internalType": "uint256",
          "name": "",
          "type": "uint256"
        }
      ],
      "stateMutability": "view",
      "type": "function"
    },
    {
      "inputs": [],
      "name": "owner",
      "outputs": [
        {
          "internalType": "address",
          "name": "",
          "type": "address"
        }
      ],
      "stateMutability": "view",
      "type": "function"
    },
    {
      "inputs": [
        {
          "internalType": "address",
          "name": "to",
          "type": "address"
        }
      ],
      "name": "sendToken",
      "outputs": [],
      "stateMutability": "payable",
      "type": "function"
    },
    {
      "inputs": [
        {
          "internalType": "address payable",
          "name": "to",
          "type": "address"
        }
      ],
      "name": "transferToken",
      "outputs": [],
      "stateMutability": "nonpayable",
      "type": "function"
    },
    {
      "inputs": [
        {
          "internalType": "address",
          "name": "",
          "type": "address"
        }
      ],
      "name": "wallet",
      "outputs": [
        {
          "internalType": "uint256",
          "name": "",
          "type": "uint256"
        }
      ],
      "stateMutability": "view",
      "type": "function"
    },
    {
      "inputs": [],
      "name": "withdraw",
      "outputs": [],
      "stateMutability": "nonpayable",
      "type": "function"
    },
    {
      "stateMutability": "payable",
      "type": "receive"
    }
  ],
  "bytecode": "0x608060405230600260006101000a81548173ffffffffffffffffffffffffffffffffffffffff021916908373ffffffffffffffffffffffffffffffffffffffff16021790555034801561005157600080fd5b50336000806101000a81548173ffffffffffffffffffffffffffffffffffffffff021916908373ffffffffffffffffffffffffffffffffffffffff1602179055506000600460008060009054906101000a900473ffffffffffffffffffffffffffffffffffffffff1673ffffffffffffffffffffffffffffffffffffffff1673ffffffffffffffffffffffffffffffffffffffff16815260200190815260200160002081905550610ba2806101076000396000f3fe60806040526004361061007f5760003560e01c8063b69ef8a81161004e578063b69ef8a814610217578063c575c23814610242578063deebeac91461025e578063f6b4dfb41461028757610168565b80633ccfd60b1461016d5780638b7afe2e146101845780638da5cb5b146101af578063a56cc439146101da57610168565b366101685734600460008060009054906101000a900473ffffffffffffffffffffffffffffffffffffffff1673ffffffffffffffffffffffffffffffffffffffff1673ffffffffffffffffffffffffffffffffffffffff16815260200190815260200160002081905550343373ffffffffffffffffffffffffffffffffffffffff16600260009054906101000a900473ffffffffffffffffffffffffffffffffffffffff1673ffffffffffffffffffffffffffffffffffffffff167f433f97eb1c2cce62f863a3099f94448d8a882075addd4d8df9bbada004eb788060405160405180910390a4005b600080fd5b34801561017957600080fd5b506101826102b2565b005b34801561019057600080fd5b50610199610409565b6040516101a691906108fa565b60405180910390f35b3480156101bb57600080fd5b506101c461040f565b6040516101d1919061089f565b60405180910390f35b3480156101e657600080fd5b5061020160048036038101906101fc91906107e1565b610433565b60405161020e91906108fa565b60405180910390f35b34801561022357600080fd5b5061022c61044b565b60405161023991906108fa565b60405180910390f35b61025c600480360381019061025791906107e1565b610451565b005b34801561026a57600080fd5b506102856004803603810190610280919061080e565b6104fa565b005b34801561029357600080fd5b5061029c610791565b6040516102a9919061089f565b60405180910390f35b3373ffffffffffffffffffffffffffffffffffffffff1660008054906101000a900473ffffffffffffffffffffffffffffffffffffffff1673ffffffffffffffffffffffffffffffffffffffff1614610340576040517f08c379a0000000000000000000000000000000000000000000000000000000008152600401610337906108ba565b60405180910390fd5b60008054906101000a900473ffffffffffffffffffffffffffffffffffffffff1673ffffffffffffffffffffffffffffffffffffffff166108fc600460008060009054906101000a900473ffffffffffffffffffffffffffffffffffffffff1673ffffffffffffffffffffffffffffffffffffffff1673ffffffffffffffffffffffffffffffffffffffff168152602001908152602001600020549081150290604051600060405180830381858888f19350505050158015610406573d6000803e3d6000fd5b50565b60035481565b60008054906101000a900473ffffffffffffffffffffffffffffffffffffffff1681565b60046020528060005260406000206000915090505481565b60015481565b34600460008373ffffffffffffffffffffffffffffffffffffffff1673ffffffffffffffffffffffffffffffffffffffff1681526020019081526020016000208190555047600381905550343373ffffffffffffffffffffffffffffffffffffffff168273ffffffffffffffffffffffffffffffffffffffff167f433f97eb1c2cce62f863a3099f94448d8a882075addd4d8df9bbada004eb788060405160405180910390a450565b6000600460008373ffffffffffffffffffffffffffffffffffffffff1673ffffffffffffffffffffffffffffffffffffffff168152602001908152602001600020541161057c576040517f08c379a0000000000000000000000000000000000000000000000000000000008152600401610573906108da565b60405180910390fd5b600060646005600460008573ffffffffffffffffffffffffffffffffffffffff1673ffffffffffffffffffffffffffffffffffffffff168152602001908152602001600020546105cc91906109ad565b6105d6919061097c565b9050600081600460008573ffffffffffffffffffffffffffffffffffffffff1673ffffffffffffffffffffffffffffffffffffffff168152602001908152602001600020546106259190610a07565b90506000600460008573ffffffffffffffffffffffffffffffffffffffff1673ffffffffffffffffffffffffffffffffffffffff168152602001908152602001600020819055508273ffffffffffffffffffffffffffffffffffffffff166108fc829081150290604051600060405180830381858888f193505050501580156106b2573d6000803e3d6000fd5b504760038190555081600460008060009054906101000a900473ffffffffffffffffffffffffffffffffffffffff1673ffffffffffffffffffffffffffffffffffffffff1673ffffffffffffffffffffffffffffffffffffffff168152602001908152602001600020600082825461072a9190610926565b92505081905550808373ffffffffffffffffffffffffffffffffffffffff163373ffffffffffffffffffffffffffffffffffffffff167ffda3a3e0e1479b43cb1c701f7576187f4c4ad80768d627387e00184302f7d88e60405160405180910390a4505050565b600260009054906101000a900473ffffffffffffffffffffffffffffffffffffffff1681565b6000813590506107c681610b3e565b92915050565b6000813590506107db81610b55565b92915050565b6000602082840312156107f7576107f6610ae7565b5b6000610805848285016107b7565b91505092915050565b60006020828403121561082457610823610ae7565b5b6000610832848285016107cc565b91505092915050565b61084481610a3b565b82525050565b6000610857601283610915565b915061086282610aec565b602082019050919050565b600061087a601783610915565b915061088582610b15565b602082019050919050565b61089981610a7f565b82525050565b60006020820190506108b4600083018461083b565b92915050565b600060208201905081810360008301526108d38161084a565b9050919050565b600060208201905081810360008301526108f38161086d565b9050919050565b600060208201905061090f6000830184610890565b92915050565b600082825260208201905092915050565b600061093182610a7f565b915061093c83610a7f565b9250827fffffffffffffffffffffffffffffffffffffffffffffffffffffffffffffffff0382111561097157610970610a89565b5b828201905092915050565b600061098782610a7f565b915061099283610a7f565b9250826109a2576109a1610ab8565b5b828204905092915050565b60006109b882610a7f565b91506109c383610a7f565b9250817fffffffffffffffffffffffffffffffffffffffffffffffffffffffffffffffff04831182151516156109fc576109fb610a89565b5b828202905092915050565b6000610a1282610a7f565b9150610a1d83610a7f565b925082821015610a3057610a2f610a89565b5b828203905092915050565b6000610a4682610a5f565b9050919050565b6000610a5882610a5f565b9050919050565b600073ffffffffffffffffffffffffffffffffffffffff82169050919050565b6000819050919050565b7f4e487b7100000000000000000000000000000000000000000000000000000000600052601160045260246000fd5b7f4e487b7100000000000000000000000000000000000000000000000000000000600052601260045260246000fd5b600080fd5b7f4f6e6c79206f776e65727320706c656173650000000000000000000000000000600082015250565b7f62616c616e636520697320696e73756666696369656e74000000000000000000600082015250565b610b4781610a3b565b8114610b5257600080fd5b50565b610b5e81610a4d565b8114610b6957600080fd5b5056fea26469706673582212203106fc7138fcc415188b51a06c14a99b984f041bb33e019d8a101d4b00b17a1c64736f6c63430008070033",
  "linkReferences": {},
  "deployedLinkReferences": {}
}