{
  "_format": "hh-sol-artifact-1",
  "contractName": "Subscription",
  "sourceName": "contracts/subscription.sol",
  "abi": [
    {
      "inputs": [],
      "stateMutability": "nonpayable",
      "type": "constructor"
    },
    {
      "anonymous": false,
      "inputs": [
        {
          "indexed": true,
          "internalType": "address",
          "name": "owner",
          "type": "address"
        },
        {
          "indexed": true,
          "internalType": "address",
          "name": "approved",
          "type": "address"
        },
        {
          "indexed": true,
          "internalType": "uint256",
          "name": "tokenId",
          "type": "uint256"
        }
      ],
      "name": "Approval",
      "type": "event"
    },
    {
      "anonymous": false,
      "inputs": [
        {
          "indexed": true,
          "internalType": "address",
          "name": "owner",
          "type": "address"
        },
        {
          "indexed": true,
          "internalType": "address",
          "name": "operator",
          "type": "address"
        },
        {
          "indexed": false,
          "internalType": "bool",
          "name": "approved",
          "type": "bool"
        }
      ],
      "name": "ApprovalForAll",
      "type": "event"
    },
    {
      "anonymous": false,
      "inputs": [
        {
          "indexed": true,
          "internalType": "address",
          "name": "from",
          "type": "address"
        },
        {
          "indexed": true,
          "internalType": "address",
          "name": "to",
          "type": "address"
        },
        {
          "indexed": true,
          "internalType": "uint256",
          "name": "tokenId",
          "type": "uint256"
        }
      ],
      "name": "Transfer",
      "type": "event"
    },
    {
      "anonymous": false,
      "inputs": [
        {
          "indexed": true,
          "internalType": "address",
          "name": "_to",
          "type": "address"
        },
        {
          "indexed": true,
          "internalType": "address",
          "name": "_from",
          "type": "address"
        },
        {
          "indexed": true,
          "internalType": "uint256",
          "name": "_amount",
          "type": "uint256"
        }
      ],
      "name": "TransferReceived",
      "type": "event"
    },
    {
      "anonymous": false,
      "inputs": [
        {
          "indexed": true,
          "internalType": "address",
          "name": "_from",
          "type": "address"
        },
        {
          "indexed": true,
          "internalType": "address",
          "name": "_desAddr",
          "type": "address"
        },
        {
          "indexed": true,
          "internalType": "uint256",
          "name": "_amount",
          "type": "uint256"
        }
      ],
      "name": "TransferSent",
      "type": "event"
    },
    {
      "inputs": [
        {
          "internalType": "uint256",
          "name": "add",
          "type": "uint256"
        }
      ],
      "name": "addSupply",
      "outputs": [],
      "stateMutability": "nonpayable",
      "type": "function"
    },
    {
      "inputs": [
        {
          "internalType": "address",
          "name": "to",
          "type": "address"
        },
        {
          "internalType": "uint256",
          "name": "tokenId",
          "type": "uint256"
        }
      ],
      "name": "approve",
      "outputs": [],
      "stateMutability": "nonpayable",
      "type": "function"
    },
    {
      "inputs": [
        {
          "internalType": "address",
          "name": "owner",
          "type": "address"
        }
      ],
      "name": "balanceOf",
      "outputs": [
        {
          "internalType": "uint256",
          "name": "",
          "type": "uint256"
        }
      ],
      "stateMutability": "view",
      "type": "function"
    },
    {
      "inputs": [
        {
          "internalType": "uint256",
          "name": "_percent",
          "type": "uint256"
        }
      ],
      "name": "changeCut",
      "outputs": [],
      "stateMutability": "nonpayable",
      "type": "function"
    },
    {
      "inputs": [
        {
          "internalType": "uint256",
          "name": "tokenId",
          "type": "uint256"
        }
      ],
      "name": "getApproved",
      "outputs": [
        {
          "internalType": "address",
          "name": "",
          "type": "address"
        }
      ],
      "stateMutability": "view",
      "type": "function"
    },
    {
      "inputs": [
        {
          "internalType": "address",
          "name": "owner",
          "type": "address"
        },
        {
          "internalType": "address",
          "name": "operator",
          "type": "address"
        }
      ],
      "name": "isApprovedForAll",
      "outputs": [
        {
          "internalType": "bool",
          "name": "",
          "type": "bool"
        }
      ],
      "stateMutability": "view",
      "type": "function"
    },
    {
      "inputs": [
        {
          "internalType": "address",
          "name": "forUser",
          "type": "address"
        },
        {
          "internalType": "address payable",
          "name": "toUser",
          "type": "address"
        },
        {
          "internalType": "uint256",
          "name": "price",
          "type": "uint256"
        },
        {
          "internalType": "string",
          "name": "tokenURI",
          "type": "string"
        }
      ],
      "name": "mintTokens",
      "outputs": [
        {
          "internalType": "uint256",
          "name": "",
          "type": "uint256"
        }
      ],
      "stateMutability": "payable",
      "type": "function"
    },
    {
      "inputs": [],
      "name": "name",
      "outputs": [
        {
          "internalType": "string",
          "name": "",
          "type": "string"
        }
      ],
      "stateMutability": "view",
      "type": "function"
    },
    {
      "inputs": [
        {
          "internalType": "uint256",
          "name": "tokenId",
          "type": "uint256"
        }
      ],
      "name": "ownerOf",
      "outputs": [
        {
          "internalType": "address",
          "name": "",
          "type": "address"
        }
      ],
      "stateMutability": "view",
      "type": "function"
    },
    {
      "inputs": [
        {
          "internalType": "address",
          "name": "from",
          "type": "address"
        },
        {
          "internalType": "address",
          "name": "to",
          "type": "address"
        },
        {
          "internalType": "uint256",
          "name": "tokenId",
          "type": "uint256"
        }
      ],
      "name": "safeTransferFrom",
      "outputs": [],
      "stateMutability": "nonpayable",
      "type": "function"
    },
    {
      "inputs": [
        {
          "internalType": "address",
          "name": "from",
          "type": "address"
        },
        {
          "internalType": "address",
          "name": "to",
          "type": "address"
        },
        {
          "internalType": "uint256",
          "name": "tokenId",
          "type": "uint256"
        },
        {
          "internalType": "bytes",
          "name": "data",
          "type": "bytes"
        }
      ],
      "name": "safeTransferFrom",
      "outputs": [],
      "stateMutability": "nonpayable",
      "type": "function"
    },
    {
      "inputs": [
        {
          "internalType": "address",
          "name": "operator",
          "type": "address"
        },
        {
          "internalType": "bool",
          "name": "approved",
          "type": "bool"
        }
      ],
      "name": "setApprovalForAll",
      "outputs": [],
      "stateMutability": "nonpayable",
      "type": "function"
    },
    {
      "inputs": [
        {
          "internalType": "bytes4",
          "name": "interfaceId",
          "type": "bytes4"
        }
      ],
      "name": "supportsInterface",
      "outputs": [
        {
          "internalType": "bool",
          "name": "",
          "type": "bool"
        }
      ],
      "stateMutability": "view",
      "type": "function"
    },
    {
      "inputs": [],
      "name": "symbol",
      "outputs": [
        {
          "internalType": "string",
          "name": "",
          "type": "string"
        }
      ],
      "stateMutability": "view",
      "type": "function"
    },
    {
      "inputs": [
        {
          "internalType": "uint256",
          "name": "tokenId",
          "type": "uint256"
        }
      ],
      "name": "tokenURI",
      "outputs": [
        {
          "internalType": "string",
          "name": "",
          "type": "string"
        }
      ],
      "stateMutability": "view",
      "type": "function"
    },
    {
      "inputs": [
        {
          "internalType": "address",
          "name": "from",
          "type": "address"
        },
        {
          "internalType": "address",
          "name": "to",
          "type": "address"
        },
        {
          "internalType": "uint256",
          "name": "tokenId",
          "type": "uint256"
        }
      ],
      "name": "transferFrom",
      "outputs": [],
      "stateMutability": "nonpayable",
      "type": "function"
    },
    {
      "inputs": [],
      "name": "withdraw",
      "outputs": [],
      "stateMutability": "nonpayable",
      "type": "function"
    },
    {
      "stateMutability": "payable",
      "type": "receive"
    }
  ],
  "bytecode": "0x60806040526305f5e1006008556003600a553480156200001e57600080fd5b50604080518082018252601481527f4372797074656120537562736372697074696f6e00000000000000000000000060208083019182528351808501909452600384526243505360e81b9084015281519192916200007f91600091620000b5565b50805162000095906001906020840190620000b5565b5050600b80546001600160a01b0319163317905550600060095562000198565b828054620000c3906200015b565b90600052602060002090601f016020900481019282620000e7576000855562000132565b82601f106200010257805160ff191683800117855562000132565b8280016001018555821562000132579182015b828111156200013257825182559160200191906001019062000115565b506200014092915062000144565b5090565b5b8082111562000140576000815560010162000145565b600181811c908216806200017057607f821691505b602082108114156200019257634e487b7160e01b600052602260045260246000fd5b50919050565b61191380620001a86000396000f3fe6080604052600436106101025760003560e01c80636352211e11610095578063a22cb46511610064578063a22cb465146102f0578063ab892eba14610310578063b88d4fde14610330578063c87b56dd14610350578063e985e9c51461037057600080fd5b80636352211e1461027a57806370a082311461029a578063771bcdeb146102c857806395d89b41146102db57600080fd5b806323b872dd116100d157806323b872dd146102055780633ccfd60b1461022557806340753a761461023a57806342842e0e1461025a57600080fd5b806301ffc9a71461015457806306fdde0314610189578063081812fc146101ab578063095ea7b3146101e357600080fd5b3661014f5734600960008282546101199190611762565b90915550506040513490339030907f433f97eb1c2cce62f863a3099f94448d8a882075addd4d8df9bbada004eb788090600090a4005b600080fd5b34801561016057600080fd5b5061017461016f3660046115a0565b6103b9565b60405190151581526020015b60405180910390f35b34801561019557600080fd5b5061019e61040b565b604051610180919061168b565b3480156101b757600080fd5b506101cb6101c63660046115da565b61049d565b6040516001600160a01b039091168152602001610180565b3480156101ef57600080fd5b506102036101fe366004611574565b6104c4565b005b34801561021157600080fd5b50610203610220366004611500565b6105df565b34801561023157600080fd5b50610203610610565b34801561024657600080fd5b506102036102553660046115da565b61067e565b34801561026657600080fd5b50610203610275366004611500565b6106bc565b34801561028657600080fd5b506101cb6102953660046115da565b6106d7565b3480156102a657600080fd5b506102ba6102b536600461142a565b610737565b604051908152602001610180565b6102ba6102d6366004611480565b6107bd565b3480156102e757600080fd5b5061019e610949565b3480156102fc57600080fd5b5061020361030b366004611541565b610958565b34801561031c57600080fd5b5061020361032b3660046115da565b610967565b34801561033c57600080fd5b5061020361034b366004611480565b610996565b34801561035c57600080fd5b5061019e61036b3660046115da565b6109ce565b34801561037c57600080fd5b5061017461038b366004611447565b6001600160a01b03918216600090815260056020908152604080832093909416825291909152205460ff1690565b60006001600160e01b031982166380ac58cd60e01b14806103ea57506001600160e01b03198216635b5e139f60e01b145b8061040557506301ffc9a760e01b6001600160e01b03198316145b92915050565b60606000805461041a906117f0565b80601f0160208091040260200160405190810160405280929190818152602001828054610446906117f0565b80156104935780601f1061046857610100808354040283529160200191610493565b820191906000526020600020905b81548152906001019060200180831161047657829003601f168201915b5050505050905090565b60006104a882610ad7565b506000908152600460205260409020546001600160a01b031690565b60006104cf826106d7565b9050806001600160a01b0316836001600160a01b031614156105425760405162461bcd60e51b815260206004820152602160248201527f4552433732313a20617070726f76616c20746f2063757272656e74206f776e656044820152603960f91b60648201526084015b60405180910390fd5b336001600160a01b038216148061055e575061055e813361038b565b6105d05760405162461bcd60e51b815260206004820152603e60248201527f4552433732313a20617070726f76652063616c6c6572206973206e6f7420746f60448201527f6b656e206f776e6572206e6f7220617070726f76656420666f7220616c6c00006064820152608401610539565b6105da8383610b39565b505050565b6105e93382610ba7565b6106055760405162461bcd60e51b815260040161053990611714565b6105da838383610c25565b600b546001600160a01b0316331461063a5760405162461bcd60e51b81526004016105399061169e565b600b546009546040516001600160a01b039092169181156108fc0291906000818181858888f19350505050158015610676573d6000803e3d6000fd5b506000600955565b600b546001600160a01b031633146106a85760405162461bcd60e51b81526004016105399061169e565b806008546106b69190611762565b60085550565b6105da83838360405180602001604052806000815250610996565b6000818152600260205260408120546001600160a01b0316806104055760405162461bcd60e51b8152602060048201526018602482015277115490cdcc8c4e881a5b9d985b1a59081d1bdad95b88125160421b6044820152606401610539565b60006001600160a01b0382166107a15760405162461bcd60e51b815260206004820152602960248201527f4552433732313a2061646472657373207a65726f206973206e6f7420612076616044820152683634b21037bbb732b960b91b6064820152608401610539565b506001600160a01b031660009081526003602052604090205490565b60006107c860075490565b600854101561080f5760405162461bcd60e51b8152602060048201526013602482015272151bdd185b08131a5b5a5d0814995858da1959606a1b6044820152606401610539565b3483146108515760405162461bcd60e51b815260206004820152601060248201526f105b5bdd5b9d08139bdd0815985b1a5960821b6044820152606401610539565b600061085c60075490565b90506108688682610dc1565b6108728184610f03565b60006064600a5434610884919061178e565b61088e919061177a565b9050600061089c82346117ad565b905081600960008282546108b09190611762565b90915550506040516001600160a01b0388169082156108fc029083906000818181858888f193505050501580156108eb573d6000803e3d6000fd5b506108fa600780546001019055565b34876001600160a01b0316896001600160a01b03167ffda3a3e0e1479b43cb1c701f7576187f4c4ad80768d627387e00184302f7d88e60405160405180910390a450909150505b949350505050565b60606001805461041a906117f0565b610963338383610f9d565b5050565b600b546001600160a01b031633146109915760405162461bcd60e51b81526004016105399061169e565b600a55565b6109a03383610ba7565b6109bc5760405162461bcd60e51b815260040161053990611714565b6109c88484848461106c565b50505050565b60606109d982610ad7565b600082815260066020526040812080546109f2906117f0565b80601f0160208091040260200160405190810160405280929190818152602001828054610a1e906117f0565b8015610a6b5780601f10610a4057610100808354040283529160200191610a6b565b820191906000526020600020905b815481529060010190602001808311610a4e57829003601f168201915b505050505090506000610a8960408051602081019091526000815290565b9050805160001415610a9c575092915050565b815115610ace578082604051602001610ab692919061161f565b60405160208183030381529060405292505050919050565b6109418461109f565b6000818152600260205260409020546001600160a01b0316610b365760405162461bcd60e51b8152602060048201526018602482015277115490cdcc8c4e881a5b9d985b1a59081d1bdad95b88125160421b6044820152606401610539565b50565b600081815260046020526040902080546001600160a01b0319166001600160a01b0384169081179091558190610b6e826106d7565b6001600160a01b03167f8c5be1e5ebec7d5bd14f71427d1e84f3dd0314c0f7b2291e5b200ac8c7c3b92560405160405180910390a45050565b600080610bb3836106d7565b9050806001600160a01b0316846001600160a01b03161480610bfa57506001600160a01b0380821660009081526005602090815260408083209388168352929052205460ff165b806109415750836001600160a01b0316610c138461049d565b6001600160a01b031614949350505050565b826001600160a01b0316610c38826106d7565b6001600160a01b031614610c9c5760405162461bcd60e51b815260206004820152602560248201527f4552433732313a207472616e736665722066726f6d20696e636f72726563742060448201526437bbb732b960d91b6064820152608401610539565b6001600160a01b038216610cfe5760405162461bcd60e51b8152602060048201526024808201527f4552433732313a207472616e7366657220746f20746865207a65726f206164646044820152637265737360e01b6064820152608401610539565b610d09600082610b39565b6001600160a01b0383166000908152600360205260408120805460019290610d329084906117ad565b90915550506001600160a01b0382166000908152600360205260408120805460019290610d60908490611762565b909155505060008181526002602052604080822080546001600160a01b0319166001600160a01b0386811691821790925591518493918716917fddf252ad1be2c89b69c2b068fc378daa952ba7f163c4a11628f55a4df523b3ef91a4505050565b6001600160a01b038216610e175760405162461bcd60e51b815260206004820181905260248201527f4552433732313a206d696e7420746f20746865207a65726f20616464726573736044820152606401610539565b6000818152600260205260409020546001600160a01b031615610e7c5760405162461bcd60e51b815260206004820152601c60248201527f4552433732313a20746f6b656e20616c7265616479206d696e746564000000006044820152606401610539565b6001600160a01b0382166000908152600360205260408120805460019290610ea5908490611762565b909155505060008181526002602052604080822080546001600160a01b0319166001600160a01b03861690811790915590518392907fddf252ad1be2c89b69c2b068fc378daa952ba7f163c4a11628f55a4df523b3ef908290a45050565b6000828152600260205260409020546001600160a01b0316610f7e5760405162461bcd60e51b815260206004820152602e60248201527f45524337323155524953746f726167653a2055524920736574206f66206e6f6e60448201526d32bc34b9ba32b73a103a37b5b2b760911b6064820152608401610539565b600082815260066020908152604090912082516105da9284019061131b565b816001600160a01b0316836001600160a01b03161415610fff5760405162461bcd60e51b815260206004820152601960248201527f4552433732313a20617070726f766520746f2063616c6c6572000000000000006044820152606401610539565b6001600160a01b03838116600081815260056020908152604080832094871680845294825291829020805460ff191686151590811790915591519182527f17307eab39ab6107e8899845ad3d59bd9653f200f220920489ca2b5937696c31910160405180910390a3505050565b611077848484610c25565b61108384848484611113565b6109c85760405162461bcd60e51b8152600401610539906116c2565b60606110aa82610ad7565b60006110c160408051602081019091526000815290565b905060008151116110e1576040518060200160405280600081525061110c565b806110eb8461121d565b6040516020016110fc92919061161f565b6040516020818303038152906040525b9392505050565b60006001600160a01b0384163b1561121557604051630a85bd0160e11b81526001600160a01b0385169063150b7a029061115790339089908890889060040161164e565b602060405180830381600087803b15801561117157600080fd5b505af19250505080156111a1575060408051601f3d908101601f1916820190925261119e918101906115bd565b60015b6111fb573d8080156111cf576040519150601f19603f3d011682016040523d82523d6000602084013e6111d4565b606091505b5080516111f35760405162461bcd60e51b8152600401610539906116c2565b805181602001fd5b6001600160e01b031916630a85bd0160e11b149050610941565b506001610941565b6060816112415750506040805180820190915260018152600360fc1b602082015290565b8160005b811561126b57806112558161182b565b91506112649050600a8361177a565b9150611245565b60008167ffffffffffffffff8111156112865761128661189c565b6040519080825280601f01601f1916602001820160405280156112b0576020820181803683370190505b5090505b8415610941576112c56001836117ad565b91506112d2600a86611846565b6112dd906030611762565b60f81b8183815181106112f2576112f2611886565b60200101906001600160f81b031916908160001a905350611314600a8661177a565b94506112b4565b828054611327906117f0565b90600052602060002090601f016020900481019282611349576000855561138f565b82601f1061136257805160ff191683800117855561138f565b8280016001018555821561138f579182015b8281111561138f578251825591602001919060010190611374565b5061139b92915061139f565b5090565b5b8082111561139b57600081556001016113a0565b600067ffffffffffffffff808411156113cf576113cf61189c565b604051601f8501601f19908116603f011681019082821181831017156113f7576113f761189c565b8160405280935085815286868601111561141057600080fd5b858560208301376000602087830101525050509392505050565b60006020828403121561143c57600080fd5b813561110c816118b2565b6000806040838503121561145a57600080fd5b8235611465816118b2565b91506020830135611475816118b2565b809150509250929050565b6000806000806080858703121561149657600080fd5b84356114a1816118b2565b935060208501356114b1816118b2565b925060408501359150606085013567ffffffffffffffff8111156114d457600080fd5b8501601f810187136114e557600080fd5b6114f4878235602084016113b4565b91505092959194509250565b60008060006060848603121561151557600080fd5b8335611520816118b2565b92506020840135611530816118b2565b929592945050506040919091013590565b6000806040838503121561155457600080fd5b823561155f816118b2565b91506020830135801515811461147557600080fd5b6000806040838503121561158757600080fd5b8235611592816118b2565b946020939093013593505050565b6000602082840312156115b257600080fd5b813561110c816118c7565b6000602082840312156115cf57600080fd5b815161110c816118c7565b6000602082840312156115ec57600080fd5b5035919050565b6000815180845261160b8160208601602086016117c4565b601f01601f19169290920160200192915050565b600083516116318184602088016117c4565b8351908301906116458183602088016117c4565b01949350505050565b6001600160a01b0385811682528416602082015260408101839052608060608201819052600090611681908301846115f3565b9695505050505050565b60208152600061110c60208301846115f3565b6020808252600a908201526927b7363c9037bbb732b960b11b604082015260600190565b60208082526032908201527f4552433732313a207472616e7366657220746f206e6f6e20455243373231526560408201527131b2b4bb32b91034b6b83632b6b2b73a32b960711b606082015260800190565b6020808252602e908201527f4552433732313a2063616c6c6572206973206e6f7420746f6b656e206f776e6560408201526d1c881b9bdc88185c1c1c9bdd995960921b606082015260800190565b600082198211156117755761177561185a565b500190565b60008261178957611789611870565b500490565b60008160001904831182151516156117a8576117a861185a565b500290565b6000828210156117bf576117bf61185a565b500390565b60005b838110156117df5781810151838201526020016117c7565b838111156109c85750506000910152565b600181811c9082168061180457607f821691505b6020821081141561182557634e487b7160e01b600052602260045260246000fd5b50919050565b600060001982141561183f5761183f61185a565b5060010190565b60008261185557611855611870565b500690565b634e487b7160e01b600052601160045260246000fd5b634e487b7160e01b600052601260045260246000fd5b634e487b7160e01b600052603260045260246000fd5b634e487b7160e01b600052604160045260246000fd5b6001600160a01b0381168114610b3657600080fd5b6001600160e01b031981168114610b3657600080fdfea26469706673582212207a45776b783edcb378bd4329859462c4195a75782d9bd5441e0debe34a2e8bd364736f6c63430008070033",
  "linkReferences": {},
  "deployedLinkReferences": {}
}