{
  "_format": "hh-sol-artifact-1",
  "contractName": "Subscription",
  "sourceName": "contracts/subscription.sol",
  "abi": [
    {
      "inputs": [],
      "stateMutability": "nonpayable",
      "type": "constructor"
    },
    {
      "anonymous": false,
      "inputs": [
        {
          "indexed": true,
          "internalType": "address",
          "name": "owner",
          "type": "address"
        },
        {
          "indexed": true,
          "internalType": "address",
          "name": "approved",
          "type": "address"
        },
        {
          "indexed": true,
          "internalType": "uint256",
          "name": "tokenId",
          "type": "uint256"
        }
      ],
      "name": "Approval",
      "type": "event"
    },
    {
      "anonymous": false,
      "inputs": [
        {
          "indexed": true,
          "internalType": "address",
          "name": "owner",
          "type": "address"
        },
        {
          "indexed": true,
          "internalType": "address",
          "name": "operator",
          "type": "address"
        },
        {
          "indexed": false,
          "internalType": "bool",
          "name": "approved",
          "type": "bool"
        }
      ],
      "name": "ApprovalForAll",
      "type": "event"
    },
    {
      "anonymous": false,
      "inputs": [
        {
          "indexed": true,
          "internalType": "address",
          "name": "from",
          "type": "address"
        },
        {
          "indexed": true,
          "internalType": "address",
          "name": "to",
          "type": "address"
        },
        {
          "indexed": true,
          "internalType": "uint256",
          "name": "tokenId",
          "type": "uint256"
        }
      ],
      "name": "Transfer",
      "type": "event"
    },
    {
      "anonymous": false,
      "inputs": [
        {
          "indexed": true,
          "internalType": "address",
          "name": "_to",
          "type": "address"
        },
        {
          "indexed": true,
          "internalType": "address",
          "name": "_from",
          "type": "address"
        },
        {
          "indexed": true,
          "internalType": "uint256",
          "name": "_amount",
          "type": "uint256"
        }
      ],
      "name": "TransferReceived",
      "type": "event"
    },
    {
      "anonymous": false,
      "inputs": [
        {
          "indexed": true,
          "internalType": "address",
          "name": "_from",
          "type": "address"
        },
        {
          "indexed": true,
          "internalType": "address",
          "name": "_desAddr",
          "type": "address"
        },
        {
          "indexed": true,
          "internalType": "uint256",
          "name": "_amount",
          "type": "uint256"
        }
      ],
      "name": "TransferSent",
      "type": "event"
    },
    {
      "inputs": [
        {
          "internalType": "uint256",
          "name": "add",
          "type": "uint256"
        }
      ],
      "name": "addSupply",
      "outputs": [],
      "stateMutability": "nonpayable",
      "type": "function"
    },
    {
      "inputs": [
        {
          "internalType": "address",
          "name": "to",
          "type": "address"
        },
        {
          "internalType": "uint256",
          "name": "tokenId",
          "type": "uint256"
        }
      ],
      "name": "approve",
      "outputs": [],
      "stateMutability": "nonpayable",
      "type": "function"
    },
    {
      "inputs": [
        {
          "internalType": "address",
          "name": "owner",
          "type": "address"
        }
      ],
      "name": "balanceOf",
      "outputs": [
        {
          "internalType": "uint256",
          "name": "",
          "type": "uint256"
        }
      ],
      "stateMutability": "view",
      "type": "function"
    },
    {
      "inputs": [
        {
          "internalType": "uint256",
          "name": "_percent",
          "type": "uint256"
        }
      ],
      "name": "changeCut",
      "outputs": [],
      "stateMutability": "nonpayable",
      "type": "function"
    },
    {
      "inputs": [
        {
          "internalType": "uint256",
          "name": "tokenId",
          "type": "uint256"
        }
      ],
      "name": "getApproved",
      "outputs": [
        {
          "internalType": "address",
          "name": "",
          "type": "address"
        }
      ],
      "stateMutability": "view",
      "type": "function"
    },
    {
      "inputs": [
        {
          "internalType": "address",
          "name": "owner",
          "type": "address"
        },
        {
          "internalType": "address",
          "name": "operator",
          "type": "address"
        }
      ],
      "name": "isApprovedForAll",
      "outputs": [
        {
          "internalType": "bool",
          "name": "",
          "type": "bool"
        }
      ],
      "stateMutability": "view",
      "type": "function"
    },
    {
      "inputs": [
        {
          "internalType": "address",
          "name": "forUser",
          "type": "address"
        },
        {
          "internalType": "address payable",
          "name": "toUser",
          "type": "address"
        },
        {
          "internalType": "uint256",
          "name": "price",
          "type": "uint256"
        },
        {
          "internalType": "string",
          "name": "tokenURI",
          "type": "string"
        }
      ],
      "name": "mintTokens",
      "outputs": [
        {
          "internalType": "uint256",
          "name": "",
          "type": "uint256"
        }
      ],
      "stateMutability": "payable",
      "type": "function"
    },
    {
      "inputs": [],
      "name": "name",
      "outputs": [
        {
          "internalType": "string",
          "name": "",
          "type": "string"
        }
      ],
      "stateMutability": "view",
      "type": "function"
    },
    {
      "inputs": [
        {
          "internalType": "uint256",
          "name": "tokenId",
          "type": "uint256"
        }
      ],
      "name": "ownerOf",
      "outputs": [
        {
          "internalType": "address",
          "name": "",
          "type": "address"
        }
      ],
      "stateMutability": "view",
      "type": "function"
    },
    {
      "inputs": [],
      "name": "percent",
      "outputs": [
        {
          "internalType": "uint256",
          "name": "",
          "type": "uint256"
        }
      ],
      "stateMutability": "view",
      "type": "function"
    },
    {
      "inputs": [
        {
          "internalType": "address",
          "name": "from",
          "type": "address"
        },
        {
          "internalType": "address",
          "name": "to",
          "type": "address"
        },
        {
          "internalType": "uint256",
          "name": "tokenId",
          "type": "uint256"
        }
      ],
      "name": "safeTransferFrom",
      "outputs": [],
      "stateMutability": "nonpayable",
      "type": "function"
    },
    {
      "inputs": [
        {
          "internalType": "address",
          "name": "from",
          "type": "address"
        },
        {
          "internalType": "address",
          "name": "to",
          "type": "address"
        },
        {
          "internalType": "uint256",
          "name": "tokenId",
          "type": "uint256"
        },
        {
          "internalType": "bytes",
          "name": "data",
          "type": "bytes"
        }
      ],
      "name": "safeTransferFrom",
      "outputs": [],
      "stateMutability": "nonpayable",
      "type": "function"
    },
    {
      "inputs": [
        {
          "internalType": "address",
          "name": "operator",
          "type": "address"
        },
        {
          "internalType": "bool",
          "name": "approved",
          "type": "bool"
        }
      ],
      "name": "setApprovalForAll",
      "outputs": [],
      "stateMutability": "nonpayable",
      "type": "function"
    },
    {
      "inputs": [
        {
          "internalType": "bytes4",
          "name": "interfaceId",
          "type": "bytes4"
        }
      ],
      "name": "supportsInterface",
      "outputs": [
        {
          "internalType": "bool",
          "name": "",
          "type": "bool"
        }
      ],
      "stateMutability": "view",
      "type": "function"
    },
    {
      "inputs": [],
      "name": "symbol",
      "outputs": [
        {
          "internalType": "string",
          "name": "",
          "type": "string"
        }
      ],
      "stateMutability": "view",
      "type": "function"
    },
    {
      "inputs": [
        {
          "internalType": "uint256",
          "name": "tokenId",
          "type": "uint256"
        }
      ],
      "name": "tokenURI",
      "outputs": [
        {
          "internalType": "string",
          "name": "",
          "type": "string"
        }
      ],
      "stateMutability": "view",
      "type": "function"
    },
    {
      "inputs": [],
      "name": "totalSupply",
      "outputs": [
        {
          "internalType": "uint256",
          "name": "",
          "type": "uint256"
        }
      ],
      "stateMutability": "view",
      "type": "function"
    },
    {
      "inputs": [
        {
          "internalType": "address",
          "name": "from",
          "type": "address"
        },
        {
          "internalType": "address",
          "name": "to",
          "type": "address"
        },
        {
          "internalType": "uint256",
          "name": "tokenId",
          "type": "uint256"
        }
      ],
      "name": "transferFrom",
      "outputs": [],
      "stateMutability": "nonpayable",
      "type": "function"
    },
    {
      "inputs": [],
      "name": "withdraw",
      "outputs": [],
      "stateMutability": "nonpayable",
      "type": "function"
    },
    {
      "stateMutability": "payable",
      "type": "receive"
    }
  ],
  "bytecode": "0x60806040526305f5e1006008556003600a553480156200001e57600080fd5b50604080518082018252601481527f4372797074656120537562736372697074696f6e00000000000000000000000060208083019182528351808501909452600384526243505360e81b9084015281519192916200007f91600091620000b5565b50805162000095906001906020840190620000b5565b5050600b80546001600160a01b0319163317905550600060095562000198565b828054620000c3906200015b565b90600052602060002090601f016020900481019282620000e7576000855562000132565b82601f106200010257805160ff191683800117855562000132565b8280016001018555821562000132579182015b828111156200013257825182559160200191906001019062000115565b506200014092915062000144565b5090565b5b8082111562000140576000815560010162000145565b600181811c908216806200017057607f821691505b602082108114156200019257634e487b7160e01b600052602260045260246000fd5b50919050565b61195580620001a86000396000f3fe6080604052600436106101185760003560e01c80636352211e116100a0578063a22cb46511610064578063a22cb46514610332578063ab892eba14610352578063b88d4fde14610372578063c87b56dd14610392578063e985e9c5146103b257600080fd5b80636352211e146102b457806370a08231146102d457806370ba1113146102f4578063771bcdeb1461030a57806395d89b411461031d57600080fd5b806318160ddd116100e757806318160ddd1461021b57806323b872dd1461023f5780633ccfd60b1461025f57806340753a761461027457806342842e0e1461029457600080fd5b806301ffc9a71461016a57806306fdde031461019f578063081812fc146101c1578063095ea7b3146101f957600080fd5b3661016557346009600082825461012f91906117a4565b90915550506040513490339030907f433f97eb1c2cce62f863a3099f94448d8a882075addd4d8df9bbada004eb788090600090a4005b600080fd5b34801561017657600080fd5b5061018a6101853660046115e2565b6103fb565b60405190151581526020015b60405180910390f35b3480156101ab57600080fd5b506101b461044d565b60405161019691906116cd565b3480156101cd57600080fd5b506101e16101dc36600461161c565b6104df565b6040516001600160a01b039091168152602001610196565b34801561020557600080fd5b506102196102143660046115b6565b610506565b005b34801561022757600080fd5b5061023160085481565b604051908152602001610196565b34801561024b57600080fd5b5061021961025a366004611542565b610621565b34801561026b57600080fd5b50610219610652565b34801561028057600080fd5b5061021961028f36600461161c565b6106c0565b3480156102a057600080fd5b506102196102af366004611542565b6106fe565b3480156102c057600080fd5b506101e16102cf36600461161c565b610719565b3480156102e057600080fd5b506102316102ef36600461146c565b610779565b34801561030057600080fd5b50610231600a5481565b6102316103183660046114c2565b6107ff565b34801561032957600080fd5b506101b461098b565b34801561033e57600080fd5b5061021961034d366004611583565b61099a565b34801561035e57600080fd5b5061021961036d36600461161c565b6109a9565b34801561037e57600080fd5b5061021961038d3660046114c2565b6109d8565b34801561039e57600080fd5b506101b46103ad36600461161c565b610a10565b3480156103be57600080fd5b5061018a6103cd366004611489565b6001600160a01b03918216600090815260056020908152604080832093909416825291909152205460ff1690565b60006001600160e01b031982166380ac58cd60e01b148061042c57506001600160e01b03198216635b5e139f60e01b145b8061044757506301ffc9a760e01b6001600160e01b03198316145b92915050565b60606000805461045c90611832565b80601f016020809104026020016040519081016040528092919081815260200182805461048890611832565b80156104d55780601f106104aa576101008083540402835291602001916104d5565b820191906000526020600020905b8154815290600101906020018083116104b857829003601f168201915b5050505050905090565b60006104ea82610b19565b506000908152600460205260409020546001600160a01b031690565b600061051182610719565b9050806001600160a01b0316836001600160a01b031614156105845760405162461bcd60e51b815260206004820152602160248201527f4552433732313a20617070726f76616c20746f2063757272656e74206f776e656044820152603960f91b60648201526084015b60405180910390fd5b336001600160a01b03821614806105a057506105a081336103cd565b6106125760405162461bcd60e51b815260206004820152603e60248201527f4552433732313a20617070726f76652063616c6c6572206973206e6f7420746f60448201527f6b656e206f776e6572206e6f7220617070726f76656420666f7220616c6c0000606482015260840161057b565b61061c8383610b7b565b505050565b61062b3382610be9565b6106475760405162461bcd60e51b815260040161057b90611756565b61061c838383610c67565b600b546001600160a01b0316331461067c5760405162461bcd60e51b815260040161057b906116e0565b600b546009546040516001600160a01b039092169181156108fc0291906000818181858888f193505050501580156106b8573d6000803e3d6000fd5b506000600955565b600b546001600160a01b031633146106ea5760405162461bcd60e51b815260040161057b906116e0565b806008546106f891906117a4565b60085550565b61061c838383604051806020016040528060008152506109d8565b6000818152600260205260408120546001600160a01b0316806104475760405162461bcd60e51b8152602060048201526018602482015277115490cdcc8c4e881a5b9d985b1a59081d1bdad95b88125160421b604482015260640161057b565b60006001600160a01b0382166107e35760405162461bcd60e51b815260206004820152602960248201527f4552433732313a2061646472657373207a65726f206973206e6f7420612076616044820152683634b21037bbb732b960b91b606482015260840161057b565b506001600160a01b031660009081526003602052604090205490565b600061080a60075490565b60085410156108515760405162461bcd60e51b8152602060048201526013602482015272151bdd185b08131a5b5a5d0814995858da1959606a1b604482015260640161057b565b3483146108935760405162461bcd60e51b815260206004820152601060248201526f105b5bdd5b9d08139bdd0815985b1a5960821b604482015260640161057b565b600061089e60075490565b90506108aa8682610e03565b6108b48184610f45565b60006064600a54346108c691906117d0565b6108d091906117bc565b905060006108de82346117ef565b905081600960008282546108f291906117a4565b90915550506040516001600160a01b0388169082156108fc029083906000818181858888f1935050505015801561092d573d6000803e3d6000fd5b5061093c600780546001019055565b34876001600160a01b0316896001600160a01b03167ffda3a3e0e1479b43cb1c701f7576187f4c4ad80768d627387e00184302f7d88e60405160405180910390a450909150505b949350505050565b60606001805461045c90611832565b6109a5338383610fdf565b5050565b600b546001600160a01b031633146109d35760405162461bcd60e51b815260040161057b906116e0565b600a55565b6109e23383610be9565b6109fe5760405162461bcd60e51b815260040161057b90611756565b610a0a848484846110ae565b50505050565b6060610a1b82610b19565b60008281526006602052604081208054610a3490611832565b80601f0160208091040260200160405190810160405280929190818152602001828054610a6090611832565b8015610aad5780601f10610a8257610100808354040283529160200191610aad565b820191906000526020600020905b815481529060010190602001808311610a9057829003601f168201915b505050505090506000610acb60408051602081019091526000815290565b9050805160001415610ade575092915050565b815115610b10578082604051602001610af8929190611661565b60405160208183030381529060405292505050919050565b610983846110e1565b6000818152600260205260409020546001600160a01b0316610b785760405162461bcd60e51b8152602060048201526018602482015277115490cdcc8c4e881a5b9d985b1a59081d1bdad95b88125160421b604482015260640161057b565b50565b600081815260046020526040902080546001600160a01b0319166001600160a01b0384169081179091558190610bb082610719565b6001600160a01b03167f8c5be1e5ebec7d5bd14f71427d1e84f3dd0314c0f7b2291e5b200ac8c7c3b92560405160405180910390a45050565b600080610bf583610719565b9050806001600160a01b0316846001600160a01b03161480610c3c57506001600160a01b0380821660009081526005602090815260408083209388168352929052205460ff165b806109835750836001600160a01b0316610c55846104df565b6001600160a01b031614949350505050565b826001600160a01b0316610c7a82610719565b6001600160a01b031614610cde5760405162461bcd60e51b815260206004820152602560248201527f4552433732313a207472616e736665722066726f6d20696e636f72726563742060448201526437bbb732b960d91b606482015260840161057b565b6001600160a01b038216610d405760405162461bcd60e51b8152602060048201526024808201527f4552433732313a207472616e7366657220746f20746865207a65726f206164646044820152637265737360e01b606482015260840161057b565b610d4b600082610b7b565b6001600160a01b0383166000908152600360205260408120805460019290610d749084906117ef565b90915550506001600160a01b0382166000908152600360205260408120805460019290610da29084906117a4565b909155505060008181526002602052604080822080546001600160a01b0319166001600160a01b0386811691821790925591518493918716917fddf252ad1be2c89b69c2b068fc378daa952ba7f163c4a11628f55a4df523b3ef91a4505050565b6001600160a01b038216610e595760405162461bcd60e51b815260206004820181905260248201527f4552433732313a206d696e7420746f20746865207a65726f2061646472657373604482015260640161057b565b6000818152600260205260409020546001600160a01b031615610ebe5760405162461bcd60e51b815260206004820152601c60248201527f4552433732313a20746f6b656e20616c7265616479206d696e74656400000000604482015260640161057b565b6001600160a01b0382166000908152600360205260408120805460019290610ee79084906117a4565b909155505060008181526002602052604080822080546001600160a01b0319166001600160a01b03861690811790915590518392907fddf252ad1be2c89b69c2b068fc378daa952ba7f163c4a11628f55a4df523b3ef908290a45050565b6000828152600260205260409020546001600160a01b0316610fc05760405162461bcd60e51b815260206004820152602e60248201527f45524337323155524953746f726167653a2055524920736574206f66206e6f6e60448201526d32bc34b9ba32b73a103a37b5b2b760911b606482015260840161057b565b6000828152600660209081526040909120825161061c9284019061135d565b816001600160a01b0316836001600160a01b031614156110415760405162461bcd60e51b815260206004820152601960248201527f4552433732313a20617070726f766520746f2063616c6c657200000000000000604482015260640161057b565b6001600160a01b03838116600081815260056020908152604080832094871680845294825291829020805460ff191686151590811790915591519182527f17307eab39ab6107e8899845ad3d59bd9653f200f220920489ca2b5937696c31910160405180910390a3505050565b6110b9848484610c67565b6110c584848484611155565b610a0a5760405162461bcd60e51b815260040161057b90611704565b60606110ec82610b19565b600061110360408051602081019091526000815290565b90506000815111611123576040518060200160405280600081525061114e565b8061112d8461125f565b60405160200161113e929190611661565b6040516020818303038152906040525b9392505050565b60006001600160a01b0384163b1561125757604051630a85bd0160e11b81526001600160a01b0385169063150b7a0290611199903390899088908890600401611690565b602060405180830381600087803b1580156111b357600080fd5b505af19250505080156111e3575060408051601f3d908101601f191682019092526111e0918101906115ff565b60015b61123d573d808015611211576040519150601f19603f3d011682016040523d82523d6000602084013e611216565b606091505b5080516112355760405162461bcd60e51b815260040161057b90611704565b805181602001fd5b6001600160e01b031916630a85bd0160e11b149050610983565b506001610983565b6060816112835750506040805180820190915260018152600360fc1b602082015290565b8160005b81156112ad57806112978161186d565b91506112a69050600a836117bc565b9150611287565b60008167ffffffffffffffff8111156112c8576112c86118de565b6040519080825280601f01601f1916602001820160405280156112f2576020820181803683370190505b5090505b8415610983576113076001836117ef565b9150611314600a86611888565b61131f9060306117a4565b60f81b818381518110611334576113346118c8565b60200101906001600160f81b031916908160001a905350611356600a866117bc565b94506112f6565b82805461136990611832565b90600052602060002090601f01602090048101928261138b57600085556113d1565b82601f106113a457805160ff19168380011785556113d1565b828001600101855582156113d1579182015b828111156113d15782518255916020019190600101906113b6565b506113dd9291506113e1565b5090565b5b808211156113dd57600081556001016113e2565b600067ffffffffffffffff80841115611411576114116118de565b604051601f8501601f19908116603f01168101908282118183101715611439576114396118de565b8160405280935085815286868601111561145257600080fd5b858560208301376000602087830101525050509392505050565b60006020828403121561147e57600080fd5b813561114e816118f4565b6000806040838503121561149c57600080fd5b82356114a7816118f4565b915060208301356114b7816118f4565b809150509250929050565b600080600080608085870312156114d857600080fd5b84356114e3816118f4565b935060208501356114f3816118f4565b925060408501359150606085013567ffffffffffffffff81111561151657600080fd5b8501601f8101871361152757600080fd5b611536878235602084016113f6565b91505092959194509250565b60008060006060848603121561155757600080fd5b8335611562816118f4565b92506020840135611572816118f4565b929592945050506040919091013590565b6000806040838503121561159657600080fd5b82356115a1816118f4565b9150602083013580151581146114b757600080fd5b600080604083850312156115c957600080fd5b82356115d4816118f4565b946020939093013593505050565b6000602082840312156115f457600080fd5b813561114e81611909565b60006020828403121561161157600080fd5b815161114e81611909565b60006020828403121561162e57600080fd5b5035919050565b6000815180845261164d816020860160208601611806565b601f01601f19169290920160200192915050565b60008351611673818460208801611806565b835190830190611687818360208801611806565b01949350505050565b6001600160a01b03858116825284166020820152604081018390526080606082018190526000906116c390830184611635565b9695505050505050565b60208152600061114e6020830184611635565b6020808252600a908201526927b7363c9037bbb732b960b11b604082015260600190565b60208082526032908201527f4552433732313a207472616e7366657220746f206e6f6e20455243373231526560408201527131b2b4bb32b91034b6b83632b6b2b73a32b960711b606082015260800190565b6020808252602e908201527f4552433732313a2063616c6c6572206973206e6f7420746f6b656e206f776e6560408201526d1c881b9bdc88185c1c1c9bdd995960921b606082015260800190565b600082198211156117b7576117b761189c565b500190565b6000826117cb576117cb6118b2565b500490565b60008160001904831182151516156117ea576117ea61189c565b500290565b6000828210156118015761180161189c565b500390565b60005b83811015611821578181015183820152602001611809565b83811115610a0a5750506000910152565b600181811c9082168061184657607f821691505b6020821081141561186757634e487b7160e01b600052602260045260246000fd5b50919050565b60006000198214156118815761188161189c565b5060010190565b600082611897576118976118b2565b500690565b634e487b7160e01b600052601160045260246000fd5b634e487b7160e01b600052601260045260246000fd5b634e487b7160e01b600052603260045260246000fd5b634e487b7160e01b600052604160045260246000fd5b6001600160a01b0381168114610b7857600080fd5b6001600160e01b031981168114610b7857600080fdfea26469706673582212203247d7705bf2fc0c71e295d6c1c63c1456d689530c0d30ac384f6c8eada1816364736f6c63430008070033",
  "linkReferences": {},
  "deployedLinkReferences": {}
}